{
  "_format": "hh-sol-artifact-1",
  "contractName": "TodoList",
  "sourceName": "contracts/TodoList.sol",
  "abi": [
    {
      "inputs": [],
      "stateMutability": "nonpayable",
      "type": "constructor"
    },
    {
      "anonymous": false,
      "inputs": [
        {
          "indexed": false,
          "internalType": "uint256",
          "name": "id",
          "type": "uint256"
        },
        {
          "indexed": false,
          "internalType": "string",
          "name": "content",
          "type": "string"
        }
      ],
      "name": "Created",
      "type": "event"
    },
    {
      "anonymous": false,
      "inputs": [
        {
          "indexed": false,
          "internalType": "uint256",
          "name": "id",
          "type": "uint256"
        }
      ],
      "name": "DeletedTask",
      "type": "event"
    },
    {
      "anonymous": false,
      "inputs": [
        {
          "indexed": false,
          "internalType": "uint256",
          "name": "id",
          "type": "uint256"
        },
        {
          "indexed": false,
          "internalType": "string",
          "name": "content",
          "type": "string"
        }
      ],
      "name": "UpdatedContent",
      "type": "event"
    },
    {
      "anonymous": false,
      "inputs": [
        {
          "indexed": false,
          "internalType": "uint256",
          "name": "id",
          "type": "uint256"
        },
        {
          "indexed": false,
          "internalType": "bool",
          "name": "completed",
          "type": "bool"
        }
      ],
      "name": "UpdatedIsCompleted",
      "type": "event"
    },
    {
      "inputs": [
        {
          "internalType": "string",
          "name": "_content",
          "type": "string"
        }
      ],
      "name": "createTask",
      "outputs": [],
      "stateMutability": "nonpayable",
      "type": "function"
    },
    {
      "inputs": [
        {
          "internalType": "uint256",
          "name": "_id",
          "type": "uint256"
        }
      ],
      "name": "deleteTask",
      "outputs": [],
      "stateMutability": "nonpayable",
      "type": "function"
    },
    {
      "inputs": [],
      "name": "taskCount",
      "outputs": [
        {
          "internalType": "uint256",
          "name": "",
          "type": "uint256"
        }
      ],
      "stateMutability": "view",
      "type": "function"
    },
    {
      "inputs": [
        {
          "internalType": "uint256",
          "name": "",
          "type": "uint256"
        }
      ],
      "name": "tasks",
      "outputs": [
        {
          "internalType": "string",
          "name": "content",
          "type": "string"
        },
        {
          "internalType": "bool",
          "name": "isCompleted",
          "type": "bool"
        },
        {
          "internalType": "bool",
          "name": "isDeleted",
          "type": "bool"
        },
        {
          "internalType": "address",
          "name": "ownerAddress",
          "type": "address"
        }
      ],
      "stateMutability": "view",
      "type": "function"
    },
    {
      "inputs": [
        {
          "internalType": "uint256",
          "name": "_id",
          "type": "uint256"
        }
      ],
      "name": "toggleIsCompleted",
      "outputs": [],
      "stateMutability": "nonpayable",
      "type": "function"
    },
    {
      "inputs": [
        {
          "internalType": "uint256",
          "name": "_id",
          "type": "uint256"
        },
        {
          "internalType": "string",
          "name": "_content",
          "type": "string"
        }
      ],
      "name": "updateContent",
      "outputs": [],
      "stateMutability": "nonpayable",
      "type": "function"
    }
  ],
  "bytecode": "0x6080604052600080553480156200001557600080fd5b506200005c6040518060400160405280600c81526020017f496e697469616c204461746100000000000000000000000000000000000000008152506200006260201b60201c565b6200043a565b60008081548092919062000076906200029e565b919050555060405180608001604052808281526020016000151581526020016000151581526020013373ffffffffffffffffffffffffffffffffffffffff1681525060016000805481526020019081526020016000206000820151816000019080519060200190620000ea929190620001b5565b5060208201518160010160006101000a81548160ff02191690831515021790555060408201518160010160016101000a81548160ff02191690831515021790555060608201518160010160026101000a81548173ffffffffffffffffffffffffffffffffffffffff021916908373ffffffffffffffffffffffffffffffffffffffff1602179055509050507f8304eea71399999aba5c87c24c7fbc7cb6fce2f02b9b5983fda2636b86df8d0a60005482604051620001aa929190620003a1565b60405180910390a150565b828054620001c39062000404565b90600052602060002090601f016020900481019282620001e7576000855562000233565b82601f106200020257805160ff191683800117855562000233565b8280016001018555821562000233579182015b828111156200023257825182559160200191906001019062000215565b5b50905062000242919062000246565b5090565b5b808211156200026157600081600090555060010162000247565b5090565b7f4e487b7100000000000000000000000000000000000000000000000000000000600052601160045260246000fd5b6000819050919050565b6000620002ab8262000294565b91507fffffffffffffffffffffffffffffffffffffffffffffffffffffffffffffffff821415620002e157620002e062000265565b5b600182019050919050565b620002f78162000294565b82525050565b600081519050919050565b600082825260208201905092915050565b60005b83811015620003395780820151818401526020810190506200031c565b8381111562000349576000848401525b50505050565b6000601f19601f8301169050919050565b60006200036d82620002fd565b62000379818562000308565b93506200038b81856020860162000319565b62000396816200034f565b840191505092915050565b6000604082019050620003b86000830185620002ec565b8181036020830152620003cc818462000360565b90509392505050565b7f4e487b7100000000000000000000000000000000000000000000000000000000600052602260045260246000fd5b600060028204905060018216806200041d57607f821691505b60208210811415620004345762000433620003d5565b5b50919050565b611162806200044a6000396000f3fe608060405234801561001057600080fd5b50600436106100625760003560e01c8063111002aa1461006757806325612dc614610083578063560f31921461009f5780638d977672146100bb578063b6cb58a5146100ee578063bc9639b21461010c575b600080fd5b610081600480360381019061007c9190610d98565b610128565b005b61009d60048036038101906100989190610e17565b610275565b005b6100b960048036038101906100b49190610e73565b61052b565b005b6100d560048036038101906100d09190610e73565b6107e2565b6040516100e59493929190610f84565b60405180910390f35b6100f66108d4565b6040516101039190610fdf565b60405180910390f35b61012660048036038101906101219190610e73565b6108da565b005b60008081548092919061013a90611029565b919050555060405180608001604052808281526020016000151581526020016000151581526020013373ffffffffffffffffffffffffffffffffffffffff16815250600160008054815260200190815260200160002060008201518160000190805190602001906101ac929190610b9b565b5060208201518160010160006101000a81548160ff02191690831515021790555060408201518160010160016101000a81548160ff02191690831515021790555060608201518160010160026101000a81548173ffffffffffffffffffffffffffffffffffffffff021916908373ffffffffffffffffffffffffffffffffffffffff1602179055509050507f8304eea71399999aba5c87c24c7fbc7cb6fce2f02b9b5983fda2636b86df8d0a6000548260405161026a929190611072565b60405180910390a150565b816001600082815260200190815260200160002060010160029054906101000a900473ffffffffffffffffffffffffffffffffffffffff1673ffffffffffffffffffffffffffffffffffffffff163373ffffffffffffffffffffffffffffffffffffffff16146102e457600080fd5b600060016000858152602001908152602001600020604051806080016040529081600082018054610314906110d1565b80601f0160208091040260200160405190810160405280929190818152602001828054610340906110d1565b801561038d5780601f106103625761010080835404028352916020019161038d565b820191906000526020600020905b81548152906001019060200180831161037057829003601f168201915b505050505081526020016001820160009054906101000a900460ff161515151581526020016001820160019054906101000a900460ff161515151581526020016001820160029054906101000a900473ffffffffffffffffffffffffffffffffffffffff1673ffffffffffffffffffffffffffffffffffffffff1673ffffffffffffffffffffffffffffffffffffffff168152505090508281600001819052508060016000868152602001908152602001600020600082015181600001908051906020019061045d929190610b9b565b5060208201518160010160006101000a81548160ff02191690831515021790555060408201518160010160016101000a81548160ff02191690831515021790555060608201518160010160026101000a81548173ffffffffffffffffffffffffffffffffffffffff021916908373ffffffffffffffffffffffffffffffffffffffff1602179055509050507feb15f38b38a9285821c3e58b79d5d8f1db3ffd35b3e623c0771c392508329b9584826000015160405161051d929190611072565b60405180910390a150505050565b806001600082815260200190815260200160002060010160029054906101000a900473ffffffffffffffffffffffffffffffffffffffff1673ffffffffffffffffffffffffffffffffffffffff163373ffffffffffffffffffffffffffffffffffffffff161461059a57600080fd5b6000600160008481526020019081526020016000206040518060800160405290816000820180546105ca906110d1565b80601f01602080910402602001604051908101604052809291908181526020018280546105f6906110d1565b80156106435780601f1061061857610100808354040283529160200191610643565b820191906000526020600020905b81548152906001019060200180831161062657829003601f168201915b505050505081526020016001820160009054906101000a900460ff161515151581526020016001820160019054906101000a900460ff161515151581526020016001820160029054906101000a900473ffffffffffffffffffffffffffffffffffffffff1673ffffffffffffffffffffffffffffffffffffffff1673ffffffffffffffffffffffffffffffffffffffff1681525050905060018160400190151590811515815250508060016000858152602001908152602001600020600082015181600001908051906020019061071b929190610b9b565b5060208201518160010160006101000a81548160ff02191690831515021790555060408201518160010160016101000a81548160ff02191690831515021790555060608201518160010160026101000a81548173ffffffffffffffffffffffffffffffffffffffff021916908373ffffffffffffffffffffffffffffffffffffffff1602179055509050507f61de6187e1e701adcbea571b1972eda6a76eb12234a4722c007c2c39916f59b1836040516107d59190610fdf565b60405180910390a1505050565b6001602052806000526040600020600091509050806000018054610805906110d1565b80601f0160208091040260200160405190810160405280929190818152602001828054610831906110d1565b801561087e5780601f106108535761010080835404028352916020019161087e565b820191906000526020600020905b81548152906001019060200180831161086157829003601f168201915b5050505050908060010160009054906101000a900460ff16908060010160019054906101000a900460ff16908060010160029054906101000a900473ffffffffffffffffffffffffffffffffffffffff16905084565b60005481565b806001600082815260200190815260200160002060010160029054906101000a900473ffffffffffffffffffffffffffffffffffffffff1673ffffffffffffffffffffffffffffffffffffffff163373ffffffffffffffffffffffffffffffffffffffff161461094957600080fd5b600060016000848152602001908152602001600020604051806080016040529081600082018054610979906110d1565b80601f01602080910402602001604051908101604052809291908181526020018280546109a5906110d1565b80156109f25780601f106109c7576101008083540402835291602001916109f2565b820191906000526020600020905b8154815290600101906020018083116109d557829003601f168201915b505050505081526020016001820160009054906101000a900460ff161515151581526020016001820160019054906101000a900460ff161515151581526020016001820160029054906101000a900473ffffffffffffffffffffffffffffffffffffffff1673ffffffffffffffffffffffffffffffffffffffff1673ffffffffffffffffffffffffffffffffffffffff1681525050905080602001511581602001901515908115158152505080600160008581526020019081526020016000206000820151816000019080519060200190610ace929190610b9b565b5060208201518160010160006101000a81548160ff02191690831515021790555060408201518160010160016101000a81548160ff02191690831515021790555060608201518160010160026101000a81548173ffffffffffffffffffffffffffffffffffffffff021916908373ffffffffffffffffffffffffffffffffffffffff1602179055509050507ffb8fc4ff13254a21dee5744803d6f127ef77693e057700b05a96b0b2b0ffaf82838260200151604051610b8e929190611103565b60405180910390a1505050565b828054610ba7906110d1565b90600052602060002090601f016020900481019282610bc95760008555610c10565b82601f10610be257805160ff1916838001178555610c10565b82800160010185558215610c10579182015b82811115610c0f578251825591602001919060010190610bf4565b5b509050610c1d9190610c21565b5090565b5b80821115610c3a576000816000905550600101610c22565b5090565b6000604051905090565b600080fd5b600080fd5b600080fd5b600080fd5b6000601f19601f8301169050919050565b7f4e487b7100000000000000000000000000000000000000000000000000000000600052604160045260246000fd5b610ca582610c5c565b810181811067ffffffffffffffff82111715610cc457610cc3610c6d565b5b80604052505050565b6000610cd7610c3e565b9050610ce38282610c9c565b919050565b600067ffffffffffffffff821115610d0357610d02610c6d565b5b610d0c82610c5c565b9050602081019050919050565b82818337600083830152505050565b6000610d3b610d3684610ce8565b610ccd565b905082815260208101848484011115610d5757610d56610c57565b5b610d62848285610d19565b509392505050565b600082601f830112610d7f57610d7e610c52565b5b8135610d8f848260208601610d28565b91505092915050565b600060208284031215610dae57610dad610c48565b5b600082013567ffffffffffffffff811115610dcc57610dcb610c4d565b5b610dd884828501610d6a565b91505092915050565b6000819050919050565b610df481610de1565b8114610dff57600080fd5b50565b600081359050610e1181610deb565b92915050565b60008060408385031215610e2e57610e2d610c48565b5b6000610e3c85828601610e02565b925050602083013567ffffffffffffffff811115610e5d57610e5c610c4d565b5b610e6985828601610d6a565b9150509250929050565b600060208284031215610e8957610e88610c48565b5b6000610e9784828501610e02565b91505092915050565b600081519050919050565b600082825260208201905092915050565b60005b83811015610eda578082015181840152602081019050610ebf565b83811115610ee9576000848401525b50505050565b6000610efa82610ea0565b610f048185610eab565b9350610f14818560208601610ebc565b610f1d81610c5c565b840191505092915050565b60008115159050919050565b610f3d81610f28565b82525050565b600073ffffffffffffffffffffffffffffffffffffffff82169050919050565b6000610f6e82610f43565b9050919050565b610f7e81610f63565b82525050565b60006080820190508181036000830152610f9e8187610eef565b9050610fad6020830186610f34565b610fba6040830185610f34565b610fc76060830184610f75565b95945050505050565b610fd981610de1565b82525050565b6000602082019050610ff46000830184610fd0565b92915050565b7f4e487b7100000000000000000000000000000000000000000000000000000000600052601160045260246000fd5b600061103482610de1565b91507fffffffffffffffffffffffffffffffffffffffffffffffffffffffffffffffff82141561106757611066610ffa565b5b600182019050919050565b60006040820190506110876000830185610fd0565b81810360208301526110998184610eef565b90509392505050565b7f4e487b7100000000000000000000000000000000000000000000000000000000600052602260045260246000fd5b600060028204905060018216806110e957607f821691505b602082108114156110fd576110fc6110a2565b5b50919050565b60006040820190506111186000830185610fd0565b6111256020830184610f34565b939250505056fea2646970667358221220946062f2fa3d67d0b75e2ad159518ddd8c5a7076fc64c28871a92e555697049764736f6c63430008090033",
  "linkReferences": {},
  "deployedLinkReferences": {}
}